:020000003628A0
:100008007E1480312100901E0A280B281528200014
:10001800901E0F28102815280130C1070030C23D56
:1000280090122100131C19281A2827282000131CB5
:100038001E281F2827280130FA007A08C600210048
:100048001310200013102100931C2B282C2834286F
:100058002000931C302831283428823162228031D4
:100068007E1009003728E730840086308500483044
:1000780086000030870006308631ED268031093051
:10008800840085308500A0308600003087003C3031
:100098008631ED26803137308400003085001130FC
:1000A8008631F3268031DC30840000308500113041
:1000B8008631F32680317E102000BF2B20004708B0
:1000C8000319672868287428D430A8008630A90046
:1000D800DC308531E42580312000CB01CB0A532A5E
:1000E800460803197828792881283A0839043804F9
:1000F8003704031D802881288A28C930A800863043
:10010800A900DC308531E425803170284B080319BB
:100118008E288F289128CB019C2844083806031D77
:10012800972843083706031D9A289B289C28612A8C
:100138003808C4003708C30000302200BF00003070
:10014800BE000030BD000030BC00BB0120003A08F2
:100158002200A700200039082200A6002000380845
:100168002200A500200037082200A4008030A30048
:100178000030A2000030A1000030A000B401BA0194
:1001880001302000B00030082200BA0724082005FA
:100198002000B0002200250821052000B10022001F
:1001A800260822052000B200220027082305200087
:1001B800B3003308320431043004031DE428E62870
:1001C8000130E7280030B40034082200B9000130BB
:1001D800A435A50DA60DA70D890BEC28390820001C
:1001E800B00030082200B404BF1BFB28FD280130F2
:1001F800FE2800302000B00030082200B500013091
:10020800BC35BD0DBE0DBF0D890B04293908200072
:10021800B000B101B201B30130082200BC072000D0
:1002280031082200BD3D200032082200BE3D2000DA
:1002380033082200BF3D0310BB0D35082000B00075
:1002480030082200BB0720303A02031C2C292D2934
:100258002E29BF293408031D322933293429C428FB
:100268000030AB000030AA000030A9000F30A80011
:100278000030AF000030AE000030AD000530AC00FB
:100288000030B3000030B2000030B1000330B000DD
:10029800B701B80122003C0828052000B000220060
:1002A8003D0829052000B10022003E082A0520004B
:1002B800B20022003F082B052000B30022002F08BF
:1002C80020003302031D782922002E082000320264
:1002D800031D782922002D0820003102031D7829EA
:1002E80022002C0820003002031C7B297C29852948
:1002F80022003008BC073108BD3D3208BE3D330836
:10030800BF3D04302200A835A90DAA0DAB0D890BFD
:1003180086290430AC35AD0DAE0DAF0D890B8E2995
:100328000430B035B10DB20DB30D890B95290130EC
:10033800B7070030B83D3808803A2000B000803058
:100348003002031DAA29083022003702031CAD29F8
:10035800AE294E290F3022003B052000B0000530A1
:100368003002031CB829B929C4280330B00030086A
:100378002200BB07C4288C302000A8008630A900C2
:10038800DC308531E425803120004C08083EB0007F
:1003980030082200C000033020004C06031DD52978
:1003A800D629E5292C30B00022004008DC3E860022
:1003B80087012000300881000130B0003008220099
:1003C800C0072200BA01362A08303A020318ED297C
:1003D800EE29FD293C080F392000B0003008220022
:1003E800B6000430BF36BE0CBD0CBC0C890BF62918
:1003F800072A3B080F392000B00030082200B60059
:10040800BB0E0F30BB0501302000B00030082200C1
:10041800BA073608303E2000B00022004008DC3E13
:1004280086008701200030088100FF30B0003008C6
:100438002200C007033040060319232A242A302A41
:10044800073040060319292A2A2A302A0B30400689
:10045800031D2F2A302A362AFF302000B00030082A
:100468002200C007C01F392A3A2AE8293030210063
:100478005C06031D402A412A532A20302000B00080
:1004880030082100DC0030305D06031D4C2A4D2A5F
:10049800532A20302000B00030082100DD00200061
:1004A800AC01003086319D268031DC302000AC0064
:1004B8000030AD0084318B24803108002000931077
:1004C8003E009A1A682A692A6F2A20004A080319E6
:1004D8006E2A6F2A752A2000C601131021001314F2
:1004E8001E2B21009310901220001508F2007208AC
:1004F800A1001608F2007208A0002108F200720894
:10050800A4002008F2007208A500240A031D902AFE
:10051800250A031D902A912A952A0130C107003027
:10052800C23D42083E02031D9B2A41083D020318B2
:100538009E2A9F2AA42A0130F2007208C7000D2BB8
:100548004608031DA82AA92AB22A0030BA0000309A
:10055800B9000030B8000030B7000D2B4208A700E2
:100568004108A6004D0ABC2AA435A50DA60DA70D65
:10057800890BB82A4008A3003F08A20027001C14D2
:100588001C1001302000A2020030A33B22082304E3
:100598000319CF2AD02AD62A210815060319D52AE5
:1005A800D62AC22A2208013EF2000030233DF30079
:1005B8003C087306031DE22A3B087206031DE52A60
:1005C800E62AEA2A0130A2070030A33D2308BC002E
:1005D8002208BB002408F2002508F3002608F400CE
:1005E8002708F5002208F6002308F700F801F901AA
:1005F8007608F2077708F33D7808F43D7908F53D69
:100608007508BA007408B9007308B8007208B70012
:10061800C701C101C201971395019601971790125E
:10062800210090160130F20072082000C5008631C2
:100638003D268231080001302000AC002C08CA0099
:100648001F111B10210093102500931320009713EE
:100658003E009A1304309B009A179A130230200028
:10066800A800F030A9004C08AC002C08AA0085317D
:10067800C025833106302000AC002C08A8004C08A7
:10068800863154268331A03E86008701403F2000F2
:10069800C800413FC9009D0148082500910020007D
:1006A80049082500920020004808FF3E99004808A4
:1006B800FF3EAC00FF30493DAD002D089A000630E2
:1006C800AC002C08A8004C08863154268331A23E81
:1006D80086008701200018080106F03901069800F5
:1006E8000630AC002C08A8004C088631542683310B
:1006F800A33E8600870101082000AD002D08CD002B
:100708000630AC002C08A8004C08863154268331EA
:10071800A43E86008701403F2000BD00413FBE0047
:100728000130AC000030AD004D0A9C2BAC35AD0D4E
:10073800890B9A2B2C08BF002D08C0000130BF027E
:100748000030C03BC501C601C101C2019601950137
:1007580090122100901620009717250093173E004D
:100768009B019A17200093102100931420001B145A
:10077800CA011F1508008531452583318631F926C0
:1007880083318B170B178431CB2483318531722544
:10079800833184313A2483316A302000AC008630BA
:1007A800AD0084318B2483312000AC01AC0A0030C9
:1007B80086319D2683317B302000AC008630AD0029
:1007C80084318B24833114302000B6000730B50003
:1007D8001130890BED2BB50BED2BB60BED2B003241
:1007E8008631BC268331853199258331200045081F
:1007F8000319FF2B002C062C803162208331200046
:10080800C5010A2CC8300032890B072C20008C192E
:100818000E2C0F2CFA2B21302000B5007630890BD6
:10082800132CB50B132C000001302000B50035083F
:10083800CC074C08803A7C3E031C232C242C252C06
:10084800CC0183311F2383318531992583310330CE
:100858002000B6008A30B5005530890B312CB50B15
:10086800312CB60B312C0032FA2B362802303D00E1
:10087800940004303C009200013020009F00F930C1
:100888009E009D0180302C0099001F309800970130
:10089800803020009B009C019A0199010B302500B3
:1008A800930009309200C330910004303E009B0051
:1008B8000C309C0005309D000C309E0005309F00D8
:1008C8000230A0000430A100A201A3019D309A00CB
:1008D80002302000A800F030A9008631AD2684310E
:1008E8002000AE002E08CC00CC1B7B2C7C2C832C4B
:1008F8004C08803A7C3E031C822C832C872C0230C7
:10090800AE002E08CC0083311F23843108008731C4
:10091800012784317C308631052684314030863188
:10092800052684312000AF012C0884002D0885009D
:100938001200031DA02CA12CA62C203086310526E0
:100948008431B32C2C0884002D08850000088631DA
:100958000526843101302000AC070030AD3D16304B
:10096800890BB42C000001302000AE002E08AF0720
:100978002F08803A703E031CC22CC32C982C863159
:10098800FD2684311630890BC72C0000080038304A
:100998008631232684313930863123268431143038
:1009A80086312326843171308631232684315630AE
:1009B8008631232684316C308631232684310330F6
:1009C8002000AD00AA30AC00CD30890BE92CAC0B6F
:1009D800E92CAD0BE92C00323830863123268431DE
:1009E800013086312326843104302000AC00913058
:1009F800890BFC2CAC0BFC2C0C3086312326843163
:100A08000630863123268431080018340034043433
:100A180004340F340034F9340034063406341F34F7
:100A28000034C3340934093409341F340034A7347A
:100A380061340C340C340F34003420343134303405
:100A48006D342034533465346334003431343034F5
:100A580030346D34203453346534633400342034F6
:100A68002034203431342034533465346334003432
:100A780020342034313430342034533465346334F2
:100A88000034433032009100803092006630930089
:100A980062309400223095009601703099009B01D5
:100AA8009D0104309F009E0116302100970023000D
:100AB8008C012C3021008C00083024008C0025008B
:100AC8008C01033026008C00083027008C00083089
:100AD80020008C00033022008C00080002303C000B
:100AE800A8003E0091019201053093000A3094005D
:100AF8000A309500023096000830970020309800A0
:100B080080309900903090002000131027009D013C
:100B180040309E009F0180309C00103020009700DC
:100B2800FD3098009601950108002000CB01CB0A02
:100B38008631BC268531DF302000AC008630AD0020
:100B480084318B2485312000AC01AC0A0830863111
:100B58009D26853109302000B0003008A8004C08D7
:100B6800863154268531B83E2000AC000030AD00F7
:100B780084318B248531080000308B1B0130200024
:100B8800AB002908310092002000280831009100AC
:100B980020002A0831009300151715158B135530BE
:100BA8009600AA30960095149518DB2DDC2DD82DCB
:100BB800151120002B0C031C8B1303188B1708002E
:100BC8002000AF002908AD002808AC002F08AA00B3
:100BD8002A08AE002E0886008701AE0A2D08AB0051
:100BE8002C08AA00AC0A0319AD0A2A0884002B08AD
:100BF80085000008C03F8908031D032E042EEE2D32
:100C080008002000A900AA01A91F0B2E0C2E0E2EE9
:100C180022000C1422008C148C100C1003102000DD
:100C2800A90D0130A8002808AA0708302A02031CC9
:100C38001E2E1F2E082E22008C148C100800200057
:100C4800AB008731012786317C3086310526863115
:100C5800803086310526863120002B08863105260E
:100C680086318631FD2686311630890B392E0000F3
:100C7800080020001F111B10F1309D004808FF3E9E
:100C880099004808FF3EF000FF30493DF100710827
:100C98009A0093102100931420001B141F150800BC
:100CA8002000AB00AA012B1C5A2E5B2E5F2E2808B1
:100CB800A9002908AA070310A80D0310AB0C2B08DC
:100CC800031D672E682E572E2A080800C034BA3430
:100CD800C034DE34CF34BC34B2342034CA34CB34DC
:100CE800DF34DD34B634B334DD34C0340034563444
:100CF8002E3434343334C434AB34C134AC34DD34FE
:100D080040344A344C343134543454344434003448
:100D18002034203420342E342034203420342C3411
:100D2800203420342034203420344D3448347A346C
:100D380000342000AE002C08AD000530AD35FF3E74
:100D4800031DA22E2D352E048038863123268631A8
:100D580008002000290831009200200028083100EE
:100D68009100151715140000000031001308080041
:100D7800013086312326863104302000AC009130C2
:100D8800890BC42EAC0BC42E08004E346F342034AB
:100D98005334693467346E3461346C34213400342C
:100DA8004F34763465347234203466346C346F349E
:100DB80077342134003457346134693474342E3430
:100DC8002E342E340034C33409340134013402344F
:100DD8000434FE0012001E00FE0BEE2E00346400E8
:100DE80080010131890BF42E003422008C140C147C
:100DF800080022008C140C14080022000C108C101F
:020E08000800E0
:020000040001F9
:08000000FF3FFF3FFF3FFF3F00
:08000E00FF3FB037FF1FFF3F69
:10E00000000000000100000000000000000000000F
:00000001FF
