:020000003328A3
:100008007E1480314E01961E0A280B2816288C1E55
:100018000E280F28162801304001C1070030C23DC4
:100028004E018C121B1E19281A282628111E1D285D
:100038001E2826280130FA007A084001C6004E0121
:100048001B1211129B1E29282A283128911E2D289F
:100058002E2831288231672280317E100900342809
:100068008631F4268031FB008631F5268031FC008C
:10007800E4308400863085004830860000308700F0
:1000880004308631D82680311930840085308500C7
:10009800A0308600003087003C308631D826803179
:1000A800373084000030850011308631DE268031FB
:1000B800DC3084000030850011308631DE26803146
:1000C8007E104001C42B4001470803196C286D2895
:1000D8007928C530A8008630A900DC308531D025C4
:1000E80080314001C901C90A582A460803197D28E8
:1000F8007E2886283A08390438043704031D8528E1
:1001080086288F28BA30A8008630A900DC308531CF
:10011800D0258031752849080319932894289628F2
:10012800C901A12844083806031D9C28430837063E
:10013800031D9F28A028A128662A3808C40037086C
:10014800C30000304201BF000030BE000030BD00D7
:100158000030BC00BB0140013A084201A700400141
:1001680039084201A600400138084201A5004001B3
:1001780037084201A4008030A3000030A2000030FC
:10018800A1000030A000B401BA0101304001B00064
:1001980030084201BA07240820054001B000420196
:1001A800250821054001B100420126082205400129
:1001B800B2004201270823054001B3003308320486
:1001C80031043004031DE928EB280130EC28003005
:1001D800B40034084201B9000130A435A50DA60DBC
:1001E800A70D890BF12839084001B00030084201F9
:1001F800B404BF1B00290229013003290030400143
:10020800B00030084201B5000130BC35BD0DBE0D4F
:10021800BF0D890B092939084001B000B101B201AD
:10022800B30130084201BC07400131084201BD3D1D
:10023800400132084201BE3D400133084201BF3D42
:100248000310BB0D35084001B00030084201BB0760
:1002580020303A02031C312932293329C4293408B1
:10026800031D372938293929C9280030AB00003047
:10027800AA000030A9000F30A8000030AF000030FD
:10028800AE000030AD000530AC000030B3000030E7
:10029800B2000030B1000330B000B701B80142012C
:1002A8003C0828054001B00042013D0829054001ED
:1002B800B10042013E082A054001B20042013F0850
:1002C8002B054001B30042012F0840013302031DF2
:1002D8007D2942012E0840013202031D7D29420179
:1002E8002D0840013102031D7D2942012C084001DF
:1002F8003002031C802981298A2942013008BC0761
:100308003108BD3D3208BE3D3308BF3D04304201CF
:10031800A835A90DAA0DAB0D890B8B290430AC3576
:10032800AD0DAE0DAF0D890B93290430B035B10D6D
:10033800B20DB30D890B9A290130B7070030B83DCB
:100348003808803A4001B00080303002031DAF29E0
:10035800083042013702031CB229B32953290F3050
:1003680042013B054001B00005303002031CBD29A5
:10037800BE29C9280330B00030084201BB07C9288C
:100388008C304001A8008630A900DC308531D025AA
:10039800803140014A08083EB00030084201C000E0
:1003A800033040014A06031DDA29DB29EA292C30EB
:1003B800B00042014008DC3E860087014001300859
:1003C80081000130B00030084201C0074201BA0183
:1003D8003B2A08303A020318F229F329022A3C087A
:1003E8000F394001B00030084201B6000430BF3672
:1003F800BE0CBD0CBC0C890BFB290C2A3B080F3921
:100408004001B00030084201B600BB0E0F30BB05FA
:1004180001304001B00030084201BA073608303ECA
:100428004001B00042014008DC3E860087014001DF
:1004380030088100FF30B00030084201C0070330A7
:1004480040060319282A292A352A073040060319A5
:100458002E2A2F2A352A0B304006031D342A352A26
:100468003B2AFF304001B00030084201C007C01FDE
:100478003E2A3F2AED29303041015C06031D452AFA
:10048800462A582A20304001B00030084101DC00DB
:1004980030305D06031D512A522A582A2030400167
:1004A800B00030084101DD004001AC010030863168
:1004B8009D268031DC304001AC000030AD00843135
:1004C8009B24803108004E0191127C019A1A6D2AF2
:1004D8006E2A742A400148080319732A742A7A2A52
:1004E8004001C6014E0111121B16292B4E019B1209
:1004F80096124B011C08F20072084001A1004B0142
:100508001D08F20072084001A0002108F2007208DC
:10051800A4002008F2007208A500240A031D982AE6
:10052800250A031D982A992A9D2A0130C1070030FF
:10053800C23D42083E02031DA32A41083D0203189A
:10054800A62AA72AAC2A0130F2007208C700172B86
:100558004608031DB02AB12ABA2A0030BA00003072
:10056800B9000030B8000030B700172B4208A700C8
:100578004108A6004B0AC42AA435A50DA60DA70D4F
:10058800890BC02A4008A3003F08A2007C01AE17CF
:10059800AE1301304001A2020030A33B220823041D
:1005A8000319D72AD82ADF2A21084B011C06031968
:1005B800DE2ADF2ACA2A40012208013EF200003062
:1005C800233DF3003C087306031DEC2A3B08720622
:1005D800031DEF2AF02AF42A0130A2070030A33DB8
:1005E8002308BC002208BB002408F2002508F300F9
:1005F8002608F4002708F5002208F6002308F7006B
:10060800F801F9017608F2077708F33D7808F43D18
:100618007908F53D7508BA007408B9007308B80080
:100628007208B700C701C101C2014B019E139C01AA
:100638009D019E174E018C1296160130F200720829
:100648004001C5008531F1258231080001304001A3
:10065800AC002C08C80045018E1344010E104E0151
:100668009B1246018E134B019E137C019A13043092
:100678009B009A179A1306304001AC002C08A8007A
:100688004A08863140268331A03E86008701403FD4
:10069800FB00413FFC0045018C017B0846018C00B2
:1006A8007C088D007B08FF3E44018C007B08FF3EE0
:1006B8004001AC00FF307C3DAD002D0844018D00A9
:1006C80006304001AC002C08A8004A0886314026B4
:1006D8008331A23E860087014B011F080106F039CD
:1006E80001069F0006304001AC002C08A8004A080B
:1006F800863140268331A33E8600870101084001E8
:10070800AD002D08CB000630AC002C08A8004A0824
:10071800863140268331A43E86008701403F400150
:10072800BD00413FBE000130AC000030AD004B0AB7
:100738009F2BAC35AD0D890B9D2B2C08BF002D08C8
:10074800C0000130BF020030C03BC501C601C10175
:10075800C2014B019D019C014E018C1296164B0162
:100768009E1746018E177C019B019A174E01911224
:100778009B1644010E144001C80145018E1708005C
:100788008531812583318631E82683318B170B1714
:100798008431DB24833185315525833184314D24DF
:1007A80083316A304001AC008630AD0084319B242F
:1007B80083314001AC01AC0A003086319D2683317B
:1007C8007B304001AC008630AD0084319B248331FE
:1007D80014304001B6000730B5001130890BF22BF8
:1007E800B50BF22BB60BF22B00328631AD268331D6
:1007F8008531A9258331400145080319042C052CAE
:100808000B2C8031672083314001C5010F2CC83083
:100818000032890B0C2C40010C1A132C142C2D2C93
:1008280021304001B5007630890B182CB50B182CF7
:10083800000001304001B5003508CA074A08803A6F
:100848007C3E031C282C292C2A2CCA0186315626CA
:10085800833140018C19312C322CFF2B213040017F
:10086800B5007630890B362CB50B362C0000FF30DE
:100878004001B5003508CA07CA1F432C442C482C30
:100888000330B5003508CA00863156268331FF2B60
:100898003328013045019000A4308F009101F930D0
:1008A8008D008C014E019010203045018E00803063
:1008B80046019E001F309D009C0144018F0190015C
:1008C8000C3091008D018C014E01101044018E01F5
:1008D8000B3046018E0009308D00C3308C00023089
:1008E8007C01A5001330A6001330A7001330A80020
:1008F8001330A9000230AA00AB01AC01AD01803071
:10090800A40004309B000F309C001B309D000F306A
:100918009E001B309F000230A0000430A100A201FD
:10092800A3019D309A0083312A238431080086313F
:10093800F02684317C308631262684314030863159
:10094800262684314001AF012C0884002D0885003B
:100958001200031DB02CB12CB62C2030863126266F
:100968008431C32C2C0884002D08850000088631AA
:100978002626843101304001AC070030AD3D1630E9
:10098800890BC42C000001304001AE002E08AF07CF
:100998002F08803A703E031CD22CD32CA82C863109
:1009A800EC2684311630890BD72C0000080038302B
:1009B80086310C268431393086310C268431143046
:1009C80086310C2684316C3086310C268431033014
:1009D8004001AD00AA30AC00CD30890BF12CAC0B36
:1009E800F12CAD0BF12C0032713086310C2684319C
:1009F800563086310C268431383086310C268431C5
:100A0800013086310C26843104304001AC0091302D
:100A1800890B0C2DAC0B0C2D0C3086310C26843137
:100A2800063086310C26843108001834003404342A
:100A380004340F340034F9340034063406341F34D7
:100A48000034C3340934093409341F340034A7345A
:100A580061340C340C340F340034203431343034E5
:100A68006D342034533465346334003431343034D5
:100A780030346D34203453346534633400342034D6
:100A88002034203431342034533465346334003412
:100A980020342034313430342034533465346334D2
:100AA800003402307D01BB007C01910192011B30B2
:100AB80093001B3094001D309500023096000830DA
:100AC80097001030980080309900903090004E01C7
:100AD800111283307C01AF00B001B101B201B30142
:100AE800B401B501B601B701AE0110304B019E004B
:100AF800FD309F009D019C01080043304F01960086
:100B080080309700633098002E30990051309A0059
:100B18009B01703051018D008F01910104309300C9
:100B2800900192017E01B8013C30400192001830DA
:100B38007E01B900BA010330BB001B30BC0018307D
:100B480040018C000330980008004001C901C90A1F
:100B58008631AD268531D0304001AC008630AD00FD
:100B680084319B2485314001AC01AC0A08308631C0
:100B78009D26853109304001B0003008A8004A0898
:100B8800863140268531B83E4001AC000030AD00CA
:100B980084319B24853108004001AF002908AD004D
:100BA8002808AC002F08AA002A08AE002E088600E4
:100BB8008701AE0A2D08AB002C08AA00AC0A03195D
:100BC800AD0A2A0884002B0885000008C03F890860
:100BD800031DEF2DF02DDA2D080045018E13440179
:100BE8000E10F13045018C007B08FF3E44018C005B
:100BF8007B08FF3EF000FF307C3DF10071088D005E
:100C08004E0191129B1644010E1445018E170800DF
:100C18004001AB008631F02686317C3086312626AD
:100C28008631803086312626863140012B08863170
:100C3800262686318631EC2686311630890B222EFF
:100C4800000008004001A900AA01A91F2C2E2D2E82
:100C58002E2E18149814981018100310A90D01308E
:100C6800A8002808AA0708302A02031C3C2E3D2E9B
:100C7800292E9814981008004001AB00AA012B1CDB
:100C8800462E472E4B2E2808A9002908AA0703102C
:100C9800A80D0310AB0C2B08031D532E542E432E06
:100CA8002A08080083312A2386318531A92586310F
:100CB80003304001B2008A30B1005530890B622EF2
:100CC800B10B622EB20B622E00320800C034BA3467
:100CD800C034DE34CF34BC34B2342034CA34CB34DC
:100CE800DF34DD34B634B334DD34C0340034563444
:100CF8002E3434343334C434AB34C134AC34DD34FE
:100D080040344A344C343134543454344434003448
:100D18002034203420342E342034203420342C3411
:100D2800203420342034203420344D3448347A346C
:100D380000344001AE002C08AD000530AD35FF3E53
:100D4800031DA22E2D352E04803886310C268631BF
:100D58000800013086310C26863104304001AC0091
:100D68009130890BB52EAC0BB52E08004E346F347C
:100D780020345334693467346E3461346C3421342C
:100D880000344F34763465347234203466346C342D
:100D98006F3477342134003457346134693474340F
:100DA8002E342E342E340034FE0012001E00FE0BAA
:100DB800D92E0034640080010131890BDF2E003404
:100DC8000134013402340434400198141814080022
:100DD80040019814181408004001181098100800D1
:040DE800C3340934D3
:020000040001F9
:08000000FF3FFF3FFF3FFF3F00
:0A000E00FF1F3C379F3FFF1FFF3F1D
:00000001FF
